:100000000C942A000C943F000C943F000C943F0089
:100010000C943F000C943F000C943F000C943F0064
:100020000C943F000C943F000C943F000C943F0054
:100030000C943F000C943F000C943F000C943F0044
:100040000C943F000C943F000C943F000C943F0034
:100050000C943F0011241FBECFE5D8E0DEBFCDBF1A
:1000600010E0A0E6B0E0EEEBF2E002C005900D92E9
:10007000A03BB107D9F70E94C2000C945D010C941B
:10008000000085BB82B38E7F82BB82B38D7F82BB33
:1000900082B3846082BB82E08A95F1F700C082B3AC
:1000A0008B7F82BB8FE99FE00197F1F700C00000D2
:1000B000089585BB82B3816082BB82B38D7F82BB92
:1000C00082B3846082BB82E08A95F1F700C082B37C
:1000D0008B7F82BB8FE99FE00197F1F700C00000A2
:1000E00008958FEF81BB84BB8FE39CE90197F1F703
:1000F00000C0000088E30E9441008CE00E944100A3
:1001000086E00E94410081E00E9441008FE99FE06B
:100110000197F1F700C0000080E80E9441000895B7
:100120000F931F93CF93DF938C01C0E0D0E0F801D1
:10013000EC0FFD1F8081882321F00E945900219639
:10014000F6CFDF91CF911F910F9108950F931F93D9
:10015000CF93883098F48B0190E00896880F880F31
:10016000880F0E944100C0E0C83040F4F801EC0F55
:10017000F11D80810E945900CF5FF6CFCF911F9172
:100180000F910895CF93DF93CDB7DEB7C054D10957
:100190000FB6F894DEBF0FBECDBF88E0E0E6F0E01A
:1001A000DE01119601900D928A95E1F788E0E8E66C
:1001B000F0E0DE01199601900D928A95E1F788E052
:1001C000E0E7F0E0DE01519601900D928A95E1F7AB
:1001D00088E0E8E7F0E0DE01599601900D928A95FB
:1001E000E1F788E0E0E8F0E0DE01919601900D9201
:1001F0008A95E1F788E0E8E8F0E0DE019996019061
:100200000D928A95E1F788E0E0E9F0E0DE01D19611
:1002100001900D928A95E1F788E0E8E9F0E0DE01CF
:10022000D99601900D928A95E1F70E947100BE0166
:100230006F5F7F4F80E00E94A600BE01675F7F4F27
:1002400081E00E94A600BE016F5E7F4F82E00E94A7
:10025000A600BE01675E7F4F83E00E94A600BE013C
:100260006F5D7F4F84E00E94A600BE01675D7F4FF7
:1002700085E00E94A600BE016F5C7F4F86E00E9471
:10028000A600BE01675C7F4F87E00E94A60080E861
:100290000E94410080EA90E00E94900080EC0E9461
:1002A000410010E0183040F4812F0E94590080E294
:0E02B0000E9459001F5FF6CFFFCFF894FFCFDA
:1002BE00000A15110A040000041F11111F1F1F1F31
:1002CE00040E0E0E1F0004000103071F1F0703017B
:1002DE0001030509090B1B180A0A1F11110E04044C
:1002EE0000000A0004110E00000A1F1F0E04000079
:1002FE00437573746F6D2063686172204C434400C4
:00000001FF
