:100000000C942A000C9434000C9434000C943400AA
:100010000C9434000C9434000C9434000C94340090
:100020000C9434000C9434000C9434000C94340080
:100030000C9434000C9434000C9434000C94340070
:100040000C9434000C9434000C9434000C94340060
:100050000C94340011241FBECFE5D8E0DEBFCDBF25
:100060000E9436000C944A000C9400008FEF81BB74
:1000700012BE85E083BF80E008B600FEFDCF12BE51
:1000800091E098BF8F5F8331B8F392B380E1892705
:0800900082BBF1CFF894FFCF11
:00000001FF
