S00E00004B65794C43442E737265631A
S11300000C942A000C9447000C9447000C9447006D
S11300100C9447000C9447000C9447000C94470040
S11300200C9447000C9447000C9447000C94470030
S11300300C9447000C9447000C9447000C94470020
S11300400C9447000C9447000C9447000C94470010
S11300500C94470011241FBECFE5D8E0DEBFCDBF0E
S113006010E0A0E6B0E0ECE5F3E002C005900D92EC
S1130070AC37B107D9F720E0ACE7B0E001C01D927E
S1130080AE37B207E1F70E9402010C94AC010C9464
S1130090000080EF84BB8FE085BB83B38F708F300B
S11300A009F462C087E893E10197F1F700C000000A
S11300B083B38F708F3009F04FC080E00895A90199
S11300C04C5F5F4F81E090E002C0880F991F4A9512
S11300D0E2F7809585BB89EF90E00197F1F700C0C6
S11300E0000083B38F7080937C008F3091F1209354
S11300F07D008E3051F4E22FF0E0EE0FFF1FEE0F83
S1130100FF1FE559FF4F808108958D3051F4E22F90
S1130110F0E0EE0FFF1FEE0FFF1FE559FF4F818147
S113012008958B3051F4E22FF0E0EE0FFF1FEE0F35
S1130130FF1FE559FF4F82810895873051F4E22F64
S1130140F0E0EE0FFF1FEE0FFF1FE559FF4F838115
S113015008952F5F3F4F02C020E030E02430310586
S11301600CF4ADCF80E0089580E008958BBB82B39A
S11301708E7F82BB82B3826082BB89EF90E001975D
S1130180F1F700C0000082B38D7F82BB83EF91E062
S11301900197F1F700C0000008958FEF8ABB81B387
S11301A0836081BB87E893E10197F1F700C0000009
S11301B088E30E94B6008CE00E94B60086E00E94AC
S11301C0B60081E00E94B60083EF91E00197F1F759
S11301D000C0000008958BBB82B3816082BB82B3F0
S11301E0826082BB89EF90E00197F1F700C00000C4
S11301F082B38D7F82BB83EF91E00197F1F700C05A
S1130200000008950E94CD00E5E6F0E00190002092
S1130210E9F73197CF01855690407C01E0E6F0E0A4
S113022001900020E9F731978F0100561040C12C4E
S1130230D12C912CC0E0D0E0AA24A394B12C0E942C
S11302404900782E882379F0981669F091E489178B
S113025021F082E4781207C003C0A12CB12C03C0A2
S1130260AA24A394B12C80E80E94B600812C912C7E
S11302700FC0CE01880D991DB7010E948401FC01B5
S1130280EB59FF4F80810E94EB009FEF891A990A76
S113029080E1881691046CF380EC0E94B600812CF6
S11302A0912C11C0C401800F911F8C1B9D0BB801B0
S11302B00E948401FC01E05AFF4F80810E94EB0000
S11302C09FEF891A990A80E1881691045CF3A114BE
S11302D0B10491F09FEFC91AD90A8AE0C816D10473
S11302E05CF02196CE15DF051CF4C12CD12C04C082
S11302F0C12CD12CC0E0D0E083EC99E00197F1F758
S113030000C00000972C9BCF97FB072E16F4009497
S113031007D077FD09D00E94980107FC05D03EF470
S1130320909581959F4F0895709561957F4F08959D
S1130330AA1BBB1B51E107C0AA1FBB1FA617B70707
S113034010F0A61BB70B881F991F5A95A9F7809523
S10F03509095BC01CD010895F894FFCFF6
S113035C20204F530020204D434900313233413487
S10F036C353642373839432A3023440028
S9030000FC
