:100000000C942A000C9434000C9434000C943400AA
:100010000C9434000C9434000C9434000C94340090
:100020000C9434000C9434000C9434000C9436007E
:100030000C9434000C9434000C9434000C94340070
:100040000C9434000C9434000C9434000C94340060
:100050000C94340011241FBECFE5D8E0DEBFCDBF25
:100060000E944A000C9454000C9400001F920F92BE
:100070000FB60F9211248F939F9388EE82BF92B395
:1000800080E1892782BB9F918F910F900FBE0F90C7
:100090001F9018958FEF81BB88EE82BF81E089BFEA
:0C00A00085E083BF7894FFCFF894FFCF79
:00000001FF
