:100000000C942A000C9434000C9434000C943400AA
:100010000C9434000C9434000C9434000C94340090
:100020000C9434000C9434000C9434000C94340080
:100030000C9434000C9434000C9434000C94340070
:100040000C9434000C9434000C9434000C94340060
:100050000C94340011241FBECFE5D8E0DEBFCDBF25
:100060000E9436000C9446000C9400008FEF81BB78
:1000700085E083BF88EE82BF08B600FEFDCF81E039
:1000800088BF92B380E1892782BBF4CFF894FFCF79
:00000001FF
