S0110000536E616B6547616D652E73726563A7
S11300000C942A000C9447000C9447000C9447006D
S11300100C9447000C9447000C9447000C94470040
S11300200C9447000C9447000C9447000C94470030
S11300300C9447000C9447000C9447000C94470020
S11300400C9447000C9447000C9447000C94470010
S11300500C94470011241FBECFE5D8E0DEBFCDBF0E
S113006010E0A0E6B0E0E4ECF4E002C005900D92EC
S1130070A837B107D9F720E0A8E7B0E001C01D9286
S1130080AC37B207E1F70E9404010C9460020C94AF
S1130090000085BB82B38E7F82BB82B3846082BB47
S11300A0000082B38B7F82BB83EF91E00197F1F76D
S11300B000C00000089585BB82B3816082BB82B317
S11300C0846082BB000082B38B7F82BB83EF91E0AC
S11300D00197F1F700C00000089581E00E944900F3
S11300E008958FEF84BB81B3856081BB87E893E17A
S11300F00197F1F700C0000088E30E9449008CE0FA
S11301000E94490086E00E94490081E00E94490063
S11301100895CF93DF93CDB7DEB760970FB6F89409
S1130120DEBF0FBECDBF80E1E8E6F0E0DE01119650
S113013001900D928A95E1F780EF87BB8FEF88BB22
S113014040E050E035C09A012C5F3F4F81E090E0E1
S113015002C0880F991F2A95E2F7809588BB20E09A
S113016030E021C086B390E0022E02C095958795B9
S11301700A94E2F780FD15C083ED90E30197F1F74F
S113018000C00000440F551F440F551F81E090E04C
S11301908C0F9D1F480F591FFA01E20FF31F808136
S11301A00BC02F5F3F4F24303105E4F24F5F5F4FA8
S11301B04430510544F280E060960FB6F894DEBFF7
S11301C00FBECDBFDF91CF9108950E946D00909135
S11301D0780080917A0020E4929F800D1124805849
S11301E00E9449008FE40E945B009091640080911A
S11301F0660020E4929F800D112480580E944900DB
S11302008AE20E945B0008950E9471000E948900A6
S1130210863351F420917A0030917B002F5F3F4F59
S113022030937B0020937A00843351F420917A0038
S113023030917B002150310930937B0020937A0068
S1130240883351F42091780030917900215031099C
S11302503093790020937800823349F480917800B8
S11302609091790001969093790080937800809121
S11302707A0090917B00409734F08FE090E0909367
S11302807B0080937A0080917A0090917B0099237F
S113029024F410927B0010927A008091780090915F
S11302A07900029734F081E090E090937900809394
S11302B078008091780090917900992324F4109229
S11302C079001092780020917A0030917B0080911F
S11302D06600909167002817390739F52091780056
S11302E03091790080916400909165002817390756
S11302F0E1F40E94ED018F709078992324F4019722
S1130300806F9F6F019690936700809366000E94B0
S1130310ED0181709078992324F401978E6F9F6F7B
S1130320019690936500809364000E94E5002FE598
S11303308AEE90E0215080409040E1F700C0000038
S113034065CF8F929F92AF92BF92CF92DF92EF923E
S1130350FF92CF93DF93EC01688179818A819B813D
S1130360611571058105910521F464E279ED8BE550
S113037097E02DE133EF41E050E00E94FD01490197
S11303805A019B01AC01A7EAB1E40E941C026B0173
S11303907C01ACEEB4EFA50194010E942A02DC01B9
S11303A0CB018C0D9D1DAE1DBF1DB7FF03C0019772
S11303B0A109B04888839983AA83BB839F77DF917F
S11303C0CF91FF90EF90DF90CF90BF90AF909F9030
S11303D08F9008950E94A101089580E690E00E9404
S11303E0A1010895A0E0B0E08093600090936100C3
S11303F0A0936200B09363000895052E97FB1EF44A
S113040000940E94140257FD07D00E942F0207FC9B
S113041003D04EF40C9414025095409530952195D8
S11304203F4F4F4F5F4F089590958095709561951C
S11304307F4F8F4F9F4F08950E945102A59F900DAB
S1130440B49F900DA49F800D911D11240895B7FFB2
S11304500C941C020E941C02821B930B0895A1E2BF
S11304601A2EAA1BBB1BFD010DC0AA1FBB1FEE1F2A
S1130470FF1FA217B307E407F50720F0A21BB30B75
S1130480E40BF50B661F771F881F991F1A9469F7F1
S113049060957095809590959B01AC01BD01CF014D
S11304A00895A29FB001B39FC001A39F700D811D49
S11304B01124911DB29F700D811D1124911D089569
S10704C0F894FFCFDA
S11304C40100000001000A003738392F3435362A78
S10B04D43132332D43303D2B7E
S9030000FC
