:100000000C942A000C9447000C9447000C94470071
:100010000C9447000C9447000C9447000C94470044
:100020000C9447000C9447000C9447000C94470034
:100030000C9447000C9447000C9447000C94470024
:100040000C9447000C9447000C9447000C94470014
:100050000C94470011241FBECFE5D8E0DEBFCDBF12
:1000600010E0A0E6B0E0E4E4F4E002C005900D92F8
:10007000A23BB107D9F720E0A2EBB0E001C01D928E
:10008000A43BB207E1F70E9473010C9420020C9488
:10009000000085BB82B38E7F82BB82B38D7F82BB23
:1000A00082B3846082BB000082B38B7F82BB83EF0C
:1000B00091E00197F1F700C00000089585BB82B37D
:1000C000816082BB82B38D7F82BB82B3846082BB3E
:1000D000000082B38B7F82BB83EF91E00197F1F741
:1000E00000C0000008958FEF81BB84BB87E893E1D7
:1000F0000197F1F700C0000088E30E9449008CE0FE
:100100000E94490086E00E94490081E00E94490067
:1001100083EF91E00197F1F700C0000080E80E94B2
:10012000490008950F931F93CF93DF938C01C0E094
:10013000D0E003C00E945E002196F801EC0FFD1F85
:1001400080818111F7CFDF91CF911F910F91089599
:1001500081E00E94490080E80E94490008950F93C1
:100160001F93CF93883098F48B0190E00896880F06
:10017000880F880F0E944900C0E007C0F801EC0F0B
:10018000F11D80810E945E00CF5FC830B8F3CF912F
:100190001F910F91089580E00E945E0081E00E940F
:1001A0005E00089582E00E945E0083E00E945E008F
:1001B0000895CF93C82F8091B3008F7080680E94FC
:1001C00049008C2F0E945E00CF910895CF93DF935A
:1001D000CDB7DEB7C054D1090FB6F894DEBF0FBE5D
:1001E000CDBF88E0E0E6F0E0DE01119601900D92CF
:1001F0008A95E1F788E0E8E6F0E0DE0119960190E3
:100200000D928A95E1F788E0E0E7F0E0DE01519693
:1002100001900D928A95E1F788E0E8E7F0E0DE01D1
:10022000599601900D928A95E1F788E0E0E8F0E0B8
:10023000DE01919601900D928A95E1F788E0E8E859
:10024000F0E0DE01999601900D928A95E1F788E041
:10025000E0E9F0E0DE01D19601900D928A95E1F798
:1002600088E0E8E9F0E0DE01D99601900D928A95E8
:10027000E1F7BE016F5F7F4F80E00E94AF00BE01DB
:10028000675F7F4F81E00E94AF00BE016F5E7F4FCE
:1002900082E00E94AF00BE01675E7F4F83E00E9454
:1002A000AF00BE016F5D7F4F84E00E94AF00BE01D2
:1002B000675D7F4F85E00E94AF00BE016F5C7F4F9E
:1002C00086E00E94AF00BE01675C7F4F87E00E941E
:1002D000AF00C05CDF4F0FB6F894DEBF0FBECDBFDE
:1002E000DF91CF9108950E94730080EA90E00E9410
:1002F000920083EC0E94490087EA90E00E949200FD
:100300002FE986E891E0215080409040E1F700C05D
:1003100000000E94E60081EC8093B30084E08093AB
:10032000B2008091B30091E0980F9093B3000E94C7
:1003300049000E94CB008091B2000E94D9008091B8
:10034000B200873020F48F5F8093B20003C084E056
:100350008093B2008FE493EC0197F1F700C00000A6
:100360000E94A8008091B30091E0980F9093B30091
:100370000E9449000E94D2008091B2000E94D900E0
:100380008091B200873020F48F5F8093B20003C069
:1003900087E08093B2008FE493EC0197F1F700C0FF
:1003A00000000E94A8008091B3008E3C08F4B9CFF1
:1003B0008091B3009FEF980F9093B3000E94490083
:1003C0000E94CB008091B2000E94D9008091B200BF
:1003D000873020F48F5F8093B20003C084E0809365
:1003E000B2008FE493EC0197F1F700C000000E9487
:1003F000A8008091B3009FEF980F9093B3000E94E4
:1004000049000E94D2008091B2000E94D9008091E0
:10041000B200873020F48F5F8093B20003C087E082
:100420008093B2008FE493EC0197F1F700C00000D5
:100430000E94A8008091B300833C08F0B9CF6BCF35
:04044000F894FFCF5E
:100444000103070D0F02050A10181C161E08140AD2
:100454000103070D0F05080410181C161E140204CE
:10046400000000000000181800000000060600004C
:100474000000030300000000001818000000000042
:100484004577696E677300416E696D6174696F6E5B
:02049400000066
:00000001FF
