:100000000C942A000C9447000C9447000C94470071
:100010000C9447000C9447000C9447000C94470044
:100020000C9447000C9447000C9447000C94470034
:100030000C9447000C9447000C9447000C94470024
:100040000C9447000C9447000C9447000C94470014
:100050000C94470011241FBECFE5D8E0DEBFCDBF12
:1000600010E0A0E6B0E0E2EEF5E002C005900D92EF
:10007000A037B107D9F720E0A0E7B0E001C01D929A
:10008000AD37B207E1F70E94FB000C94EF020C942D
:10009000000085BB82B38E7F82BB82B3826082BB4D
:1000A000000082B38D7F82BB83EF91E00197F1F76F
:1000B00000C00000089585BB82B3816082BB82B31B
:1000C000826082BB000082B38D7F82BB83EF91E0B0
:1000D0000197F1F700C000000895CF93DF93EC0182
:1000E00003C021960E945B0088818111FACFDF91C5
:1000F000CF91089581E00E94490008958FEF84BB5D
:1001000081BB87E893E10197F1F700C0000088E325
:100110000E9449008CE00E94490086E00E9449004C
:1001200081E00E9449000895CF93DF93CDB7DEB7F9
:1001300060970FB6F894DEBF0FBECDBF80E1E0E65A
:10014000F0E0DE01119601900D928A95E1F780EFC3
:1001500087BB8FEF88BB40E050E03FC09A012C5F27
:100160003F4F81E090E002C0880F991F2A95E2F787
:10017000809588BB20E030E02BC086B390E0022E53
:1001800002C0959587950A94E2F780FD1FC087E825
:1001900093E10197F1F700C0000086B390E0022ED2
:1001A00002C0959587950A94E2F780FFF6CF440F39
:1001B000551F440F551F81E090E08C0F9D1F480F85
:1001C000591FFA01E20FF31F80810CC02F5F3F4FD0
:1001D0002430310594F24F5F5F4F443051050CF4E9
:1001E000BDCFB9CF60960FB6F894DEBF0FBECDBFBE
:1001F000DF91CF910895CF93DF93CDB7DEB76097AE
:100200000FB6F894DEBF0FBECDBF0E947E000E94E5
:100210007A0010927400109275001092760010927D
:100220007700109278001092790010927A00109264
:100230007B000E949400833459F40E947A0010924B
:1002400078001092790010927A0010927B00F1CF22
:1002500090ED980F9A3098F5409178005091790080
:1002600060917A0070917B00440F551F661F771FC5
:100270006A017B01CC0CDD1CEE1CFF1CCC0CDD1CD0
:10028000EE1CFF1C8A019B010C0D1D1D2E1D3F1D28
:10029000482F50E040535109052E000C660B770B98
:1002A000400F511F621F731F4093780050937900D5
:1002B00060937A0070937B000E945B00BACF8093BA
:1002C0007C000E945B000E949400833499F40E9499
:1002D0007A001092740010927500109276001092BD
:1002E0007700109278001092790010927A001092A4
:1002F0007B008DCF90ED980F9A3098F54091740067
:10030000509175006091760070917700440F551FF1
:10031000661F771F6A017B01CC0CDD1CEE1CFF1CE5
:10032000CC0CDD1CEE1CFF1C8A019B010C0D1D1D5D
:100330002E1D3F1D482F50E040535109052E000C43
:10034000660B770B400F511F621F731F40937400A1
:100350005093750060937600709377000E945B0065
:10036000B2CF8D3309F0AFCF80917C008B3259F042
:1003700020F48A3209F441C07AC08D3209F18F32FB
:1003800009F456C074C04091780050917900609192
:100390007A0070917B008091740090917500A0911B
:1003A0007600B0917700840F951FA61FB71F80932A
:1003B000700090937100A0937200B093730057C0C7
:1003C0008091780090917900A0917A00B0917B00A3
:1003D00040917400509175006091760070917700A3
:1003E000841B950BA60BB70B809370009093710044
:1003F000A0937200B09373003AC0209178003091BE
:10040000790040917A0050917B0060917400709166
:10041000750080917600909177000E944F02609362
:1004200070007093710080937200909373001FC0EE
:1004300020917400309175004091760050917700C2
:10044000211531054105510551F0609178007091F9
:10045000790080917A0090917B000E945F02209346
:10046000700030937100409372005093730080ECE1
:100470000E9449004AE0BE016F5F7F4F809170008B
:10048000909171000E94BA02CE0101960E946D0007
:100490000E9494008334E1F70E947A00B8CEDB0119
:1004A0008F939F930E947E02BF91AF91A29F800D78
:1004B000911DA39F900DB29F900D11240895052EBC
:1004C00097FB1EF400940E94760257FD07D00E940D
:1004D000890207FC03D04EF40C94760250954095A7
:1004E000309521953F4F4F4F5F4F089590958095E0
:1004F000709561957F4F8F4F9F4F08950E94AB027B
:10050000A59F900DB49F900DA49F800D911D112467
:100510000895A1E21A2EAA1BBB1BFD010DC0AA1F44
:10052000BB1FEE1FFF1FA217B307E407F50720F05C
:10053000A21BB30BE40BF50B661F771F881F991FD7
:100540001A9469F760957095809590959B01AC0120
:10055000BD01CF010895A29FB001B39FC001A39F29
:10056000700D811D1124911DB29F700D811D1124EC
:10057000911D0895BB274A3031F4992322F4BDE23E
:10058000909581959F4F0C94C602BB27FB01552780
:10059000AA27880F991FAA1FA41710F0A41B8395E0
:1005A0005051B9F7A05DAA3308F0A95DA193009757
:1005B00079F7B111B1931192CB010C94DF02DC01F8
:1005C000FC01672F71917723E1F7329704C07C918A
:1005D0006D9370836291AE17BF07C8F30895F894C6
:0205E000FFCF4B
:1005E2003738392F3435362A3132332D43303D2BCB
:00000001FF
