:100000000C942A000C9447000C9447000C94470071
:100010000C9447000C9447000C9447000C94470044
:100020000C9447000C9447000C9447000C94470034
:100030000C9447000C9447000C9447000C94470024
:100040000C9447000C9447000C9447000C94470014
:100050000C94470011241FBECFE5D8E0DEBFCDBF12
:1000600010E0A0E6B0E0ECEAF2E002C005900D92EC
:10007000A437B107D9F720E0A4E7B0E001C01D9292
:10008000A637B207E1F70E9498000C9454010C9433
:10009000000085BB82B38E7F82BB82B3846082BB4B
:1000A000000082B38B7F82BB83EF91E00197F1F771
:1000B00000C00000089585BB82B3816082BB82B31B
:1000C000846082BB000082B38B7F82BB83EF91E0B0
:1000D0000197F1F700C000000895CF93DF93EC0182
:1000E00003C021960E945B0088818111FACFDF91C5
:1000F000CF9108958FEF84BB81B3856281BB81B3BB
:10010000877E81BB82B3886182BB87E893E10197D8
:10011000F1F700C0000088E30E9449008CE00E94D3
:10012000490086E00E94490081E00E94490008954C
:10013000CF93DF93CDB7DEB72A970FB6F894DEBF23
:100140000FBECDBF0E947A00839919C080917400C0
:1001500090917500209160003091610082179307A3
:100160002CF4019690937500809374002FE58AEE2D
:1001700090E0215080409040E1F700C00000849959
:1001800015C08091740090917500181619062CF412
:10019000019790937500809374002FE58AEE90E0AC
:1001A000215080409040E1F700C0000080E80E94AC
:1001B000490082E690E00E946D0080EC0E944900B8
:1001C00020917400309175008091600090916100E1
:1001D00028173907A9F48EE690E00E946D0020E010
:1001E00030E00AC092B380E2892782BB86EA8A9512
:1001F000F1F700C02F5F3F4F283C31059CF318C03A
:1002000088E690E00E946D0080EC0E9449004AE080
:10021000BE016F5F7F4F80917400909175000E94C6
:100220001F01CE0101960E946D0082B38F7D82BBBB
:100230008FE493EC0197F1F700C0000085CFBB2756
:100240004A3031F4992322F4BDE2909581959F4F75
:100250000C942B01BB27FB015527AA27880F991F58
:10026000AA1FA41710F0A41B83955051B9F7A05DE5
:10027000AA3308F0A95DA193009779F7B111B19362
:100280001192CB010C944401DC01FC01672F7191A8
:100290007723E1F7329704C07C916D93708362916C
:0C02A000AE17BF07C8F30895F894FFCF15
:1002AC000500436F756E743A2020202020004655BF
:0402BC004C4C200086
:00000001FF
