:100000000C942A000C9447000C9447000C94470071
:100010000C9447000C9447000C9447000C94470044
:100020000C9447000C9447000C9447000C94470034
:100030000C9447000C9447000C9447000C94470024
:100040000C9447000C9447000C9447000C94470014
:100050000C94470011241FBECFE5D8E0DEBFCDBF12
:1000600010E0A0E6B0E0EEE2F3E002C005900D92F1
:10007000AC3CB107D9F720E0ACECB0E001C01D9278
:10008000A13DB207E1F70E94FD000C9495010C948C
:10009000000085BB82B38E7F82BB82B3846082BB4B
:1000A000000082B38B7F82BB83EF91E00197F1F771
:1000B00000C00000089585BB82B3816082BB82B31B
:1000C000846082BB000082B38B7F82BB83EF91E0B0
:1000D0000197F1F700C000000895CF93DF93EC0182
:1000E00003C021960E945B0088818111FACFDF91C5
:1000F000CF91089581E00E94490008958FEF84BB5D
:1001000081B3856681BB87E893E10197F1F700C071
:10011000000088E30E9449008CE00E94490086E0CC
:100120000E94490081E00E9449000895CF93DF9327
:10013000CDB7DEB760970FB6F894DEBF0FBECDBF68
:1001400080E1E2E9F0E0DE01119601900D928A95DE
:10015000E1F780EF87BB8FE088BB40E050E03FC015
:100160009A012C5F3F4F81E090E002C0880F991FF9
:100170002A95E2F7809588BB20E030E02BC086B35B
:1001800090E0022E02C0959587950A94E2F780FDD3
:100190001FC087E893E10197F1F700C0000086B324
:1001A00090E0022E02C0959587950A94E2F780FFB1
:1001B000F6CF440F551F440F551F81E090E08C0F80
:1001C0009D1F480F591FFA01E20FF31F80810CC0D9
:1001D0002F5F3F4F2430310594F24F5F5F4F443023
:1001E00051050CF4BDCFB9CF60960FB6F894DEBFC1
:1001F0000FBECDBFDF91CF9108950E947E000E9477
:100200007A0082EA90E00E946D002FE986E891E092
:10021000215080409040E1F700C000000E947A0029
:100220002FE986E891E0215080409040E1F700C03E
:10023000000082EA90E00E946D0080EC0E9449007C
:10024000C0E0D0E00AC00E949600FE01E453FF4FD8
:1002500080838AE20E945B002196C430D1059CF322
:100260001092D0002FE986E891E021508040904024
:10027000E1F700C00000C0E0D0E010C0BE01660F92
:10028000771F660F771F6C0F7D1F605A7F4F8CECB6
:1002900090E00E948C01892B39F02196CA30D1055B
:1002A0006CF3C0E0D0E002C0C1E0D0E00E947A0070
:1002B000CD2BA1F08EEA90E00E946D0082B38064A5
:1002C00082BB2FEB87E299E0215080409040E1F71C
:1002D00000C0000082B38F7B82BB14C08DEB90E026
:1002E0000E946D0020E030E00AC092B380E28927CE
:1002F00082BB86EA8A95F1F700C02F5F3F4F283C0A
:1003000031059CF39FE72AE186E091502040804030
:10031000E1F700C0000073CFFB01DC018D9101907B
:0E03200080190110D9F3990B0895F894FFCFBE
:10032E003132333400353637380031313131003225
:10033E003232320033333333003434343400353513
:10034E0035350036363636003737373700383838D9
:10035E0038003738392F3435362A3132332D433081
:10036E003D2B456E746572204752204E6F004163DF
:10037E0063657373204772616E74656400416363D5
:0C038E006573732044656E6965640000AF
:00000001FF
