S01000006C65644F4E4F46462E7372656367
S11300000C942A000C943F000C943F000C943F0085
S11300100C943F000C943F000C943F000C943F0060
S11300200C943F000C943F000C943F000C943F0050
S11300300C943F000C943F000C943F000C943F0040
S11300400C943F000C943F000C943F000C943F0030
S11300500C943F0011241FBECFE5D8E0DEBFCDBF16
S113006010E0A0E6B0E0ECE5F1E002C005900D92EE
S1130070A838B107D9F70E9467000C94AC000C941F
S113008000009B01AC0160E271EA87E090E00E940D
S11300908A002150310930BD29B988E18AB986E83E
S11300A080BD08955F9BFECF8CB108955D9BFECF0C
S11300B08CB90895CF93DF93EC0103C021960E947D
S11300C0560088818111FACFDF91CF91089581B3D1
S11300D0806281BB60E875E280E090E00E944100AC
S11300E080E690E00E945A000E945200803341F45E
S11300F082B3806282BB82E790E00E945A00F4CF10
S1130100813391F782B38F7D82BB8CE790E00E94AC
S11301105A00EACFA1E21A2EAA1BBB1BFD010DC097
S1130120AA1FBB1FEE1FFF1FA217B307E407F507A3
S113013020F0A21BB30BE40BF50B661F771F881F7F
S1130140991F1A9469F760957095809590959B0115
S10F0150AC01BD01CF010895F894FFCF6D
S113015C426C7565746F6F74682052656164790DB7
S113016C0A004C616D70204F4E0D0A004C616D708D
S10B017C204F46460D0A000065
S9030000FC
