:100000000C942A000C943F000C943F000C943F0089
:100010000C943F000C943F000C943F000C943F0064
:100020000C943F000C943F000C943F000C943F0054
:100030000C943F000C943F000C943F000C943F0044
:100040000C943F000C943F000C943F000C943F0034
:100050000C943F0011241FBECFE5D8E0DEBFCDBF1A
:1000600010E0A0E6B0E0ECE6F2E002C005900D92F0
:10007000A836B107D9F70E94CC000C9434010C9437
:10008000000098B39F70282F207F922B98BB92B3CB
:100090009E7F92BB92B3926092BBE9EFF0E0319702
:1000A000F1F700C0000092B39D7F92BB28B3F0E14E
:1000B0008F9FC0011124922F9F70892B88BB82B320
:1000C000826082BB89EF90E00197F1F700C00000E9
:1000D00082B38D7F82BB089598B39F70282F207FB5
:1000E000922B98BB92B3916092BB92B3926092BBF9
:1000F000E9EFF0E03197F1F700C0000092B39D7F87
:1001000092BB28B3F0E18F9FC0011124922F9F7002
:10011000892B88BB82B3826082BB89EF90E0019714
:10012000F1F700C0000082B38D7F82BB089580EF9D
:1001300087BB81B3836081BB87E893E10197F1F7C7
:1001400000C0000082E00E94410088E20E9441005D
:100150008CE00E94410086E00E94410081E00E9404
:1001600041000895CF93DF93EC0103C021960E94D4
:100170006C0088818111FACFDF91CF91089580E4DE
:1001800087B986E886B9089586B1806486B93699BC
:10019000FECF84B195B10895CF93DF93CDB7DEB78D
:1001A0002A970FB6F894DEBF0FBECDBF0E9497000E
:1001B0000E94BF000E94C40024EF31E0AC01429FC6
:1001C000C001439F900D529F900D1124092F069559
:1001D000069510E080E80E944100802F912F6AE090
:1001E00070E00E940C01605D6983805D8A8383E416
:1001F0008B831C8280E690E00E94B200CE010196C3
:100200000E94B2005FE38DE093E051508040904047
:10021000E1F700C00000CECF97FB072E16F4009444
:1002200007D077FD09D00E94200107FC05D03EF4DD
:10023000909581959F4F0895709561957F4F089592
:10024000AA1BBB1B51E107C0AA1FBB1FA617B707FC
:1002500010F0A61BB70B881F991F5A95A9F7809518
:0C0260009095BC01CD010895F894FFCFEB
:08026C0054656D703A2000009A
:00000001FF
