S00E00006B65797061642E7372656398
S11300000C942A000C9447000C9447000C9447006D
S11300100C9447000C9447000C9447000C94470040
S11300200C9447000C9447000C9447000C94470030
S11300300C9447000C9447000C9447000C94470020
S11300400C9447000C9447000C9447000C94470010
S11300500C94470011241FBECFE5D8E0DEBFCDBF0E
S113006010E0A0E6B0E0E2EDF2E002C005900D92EF
S1130070A638B107D9F720E0A6E8B0E001C01D9288
S1130080A838B207E1F70E944A010C9467010C9466
S1130090000080EF84BB8FE085BB85B38F7085BB88
S11300A083B38F70809386008F30B9F787E893E12C
S11300B00197F1F700C0000083B38F70809386002E
S11300C08F30A1F387E893E10197F1F700C00000B6
S11300D080EF84BB8FEE85BB89EF90E00197F1F749
S11300E000C0000083B38F70809386008F3019F0B6
S11300F01092870036C08FED85BB89EF90E00197A1
S1130100F1F700C0000083B38F70809386008F30B6
S113011021F081E08093870024C08FEB85BB89EFB9
S113012090E00197F1F700C0000083B38F708093D3
S113013086008F3021F082E08093870012C08FE721
S113014085BB89EF90E00197F1F700C0000083B30D
S11301508F70809386008F3009F49BCF83E0809367
S11301608700809186008E3059F4E0918700F0E09A
S1130170EE0FFF1FEE0FFF1FE05AFF4F808108951F
S11301808D3059F4E0918700F0E0EE0FFF1FEE0F81
S1130190FF1FE05AFF4F818108958B3059F4E0919D
S11301A08700F0E0EE0FFF1FEE0FFF1FE05AFF4F36
S11301B082810895E0918700F0E0EE0FFF1FEE0FBB
S11301C0FF1FE05AFF4F838108958BBB82B38E7F5C
S11301D082BB82B3826082BB89EF90E00197F1F722
S11301E000C0000082B38D7F82BB83EF91E0019752
S11301F0F1F700C0000008958FEF8ABB81B38360DC
S113020081BB87E893E10197F1F700C0000088E320
S11302100E94E5008CE00E94E50086E00E94E50073
S113022081E00E94E50083EF91E00197F1F700C0BF
S1130230000008958BBB82B3816082BB82B382606D
S113024082BB89EF90E00197F1F700C0000082B310
S11302508D7F82BB83EF91E00197F1F700C000002E
S11302600895CF93DF93EC0103C021960E941A01F5
S113027088818111FACFDF91CF910895811105C052
S113028080E8860F0E94E500089580EC860F0E94A6
S1130290E50008950E94FC0060E080E00E943E01B9
S11302A080E790E00E9431010E944900C82F60E07D
S11302B081E00E943E018BE790E00E9431018C2F87
S11302C00E941A0181E890E00E943101EDCFF89478
S10502D0FFCF5A
S11302D23132334134353642373839432A302344B4
S11302E25072657373204B65793A004B65793A20F5
S10902F2002020200000A2
S9030000FC
